{"abi":[{"type":"constructor","inputs":[],"stateMutability":"nonpayable"},{"type":"function","name":"alertCount","inputs":[],"outputs":[{"name":"","type":"uint256","internalType":"uint256"}],"stateMutability":"view"},{"type":"function","name":"alerts","inputs":[{"name":"","type":"uint256","internalType":"uint256"}],"outputs":[{"name":"id","type":"uint256","internalType":"uint256"},{"name":"contentHash","type":"string","internalType":"string"},{"name":"timestamp","type":"uint256","internalType":"uint256"},{"name":"reporter","type":"address","internalType":"address"}],"stateMutability":"view"},{"type":"function","name":"createAlert","inputs":[{"name":"_contentHash","type":"string","internalType":"string"}],"outputs":[],"stateMutability":"nonpayable"},{"type":"function","name":"owner","inputs":[],"outputs":[{"name":"","type":"address","internalType":"address"}],"stateMutability":"view"},{"type":"function","name":"renounceOwnership","inputs":[],"outputs":[],"stateMutability":"nonpayable"},{"type":"function","name":"transferOwnership","inputs":[{"name":"newOwner","type":"address","internalType":"address"}],"outputs":[],"stateMutability":"nonpayable"},{"type":"event","name":"AlertCreated","inputs":[{"name":"id","type":"uint256","indexed":false,"internalType":"uint256"},{"name":"contentHash","type":"string","indexed":false,"internalType":"string"},{"name":"reporter","type":"address","indexed":false,"internalType":"address"}],"anonymous":false},{"type":"event","name":"OwnershipTransferred","inputs":[{"name":"previousOwner","type":"address","indexed":true,"internalType":"address"},{"name":"newOwner","type":"address","indexed":true,"internalType":"address"}],"anonymous":false},{"type":"error","name":"OwnableInvalidOwner","inputs":[{"name":"owner","type":"address","internalType":"address"}]},{"type":"error","name":"OwnableUnauthorizedAccount","inputs":[{"name":"account","type":"address","internalType":"address"}]}],"bytecode":{"object":"0x608060405234801561000f575f5ffd5b50335f73ffffffffffffffffffffffffffffffffffffffff168173ffffffffffffffffffffffffffffffffffffffff1603610081575f6040517f1e4fbdf70000000000000000000000000000000000000000000000000000000081526004016100789190610196565b60405180910390fd5b6100908161009660201b60201c565b506101af565b5f5f5f9054906101000a900473ffffffffffffffffffffffffffffffffffffffff169050815f5f6101000a81548173ffffffffffffffffffffffffffffffffffffffff021916908373ffffffffffffffffffffffffffffffffffffffff1602179055508173ffffffffffffffffffffffffffffffffffffffff168173ffffffffffffffffffffffffffffffffffffffff167f8be0079c531659141344cd1fd0a4f28419497f9722a3daafe3b4186f6b6457e060405160405180910390a35050565b5f73ffffffffffffffffffffffffffffffffffffffff82169050919050565b5f61018082610157565b9050919050565b61019081610176565b82525050565b5f6020820190506101a95f830184610187565b92915050565b610c38806101bc5f395ff3fe608060405234801561000f575f5ffd5b5060043610610060575f3560e01c8063171d073a14610064578063715018a614610097578063762938b6146100a15780638da5cb5b146100bd578063ab446491146100db578063f2fde38b146100f9575b5f5ffd5b61007e60048036038101906100799190610559565b610115565b60405161008e9493929190610642565b60405180910390f35b61009f6101e6565b005b6100bb60048036038101906100b691906107b8565b6101f9565b005b6100c5610315565b6040516100d291906107ff565b60405180910390f35b6100e361033c565b6040516100f09190610818565b60405180910390f35b610113600480360381019061010e919061085b565b610342565b005b6001602052805f5260405f205f91509050805f01549080600101805461013a906108b3565b80601f0160208091040260200160405190810160405280929190818152602001828054610166906108b3565b80156101b15780601f10610188576101008083540402835291602001916101b1565b820191905f5260205f20905b81548152906001019060200180831161019457829003601f168201915b505050505090806002015490806003015f9054906101000a900473ffffffffffffffffffffffffffffffffffffffff16905084565b6101ee6103c6565b6101f75f61044d565b565b6102016103c6565b60025f81548092919061021390610910565b9190505550604051806080016040528060025481526020018281526020014281526020013373ffffffffffffffffffffffffffffffffffffffff1681525060015f60025481526020019081526020015f205f820151815f015560208201518160010190816102819190610af7565b50604082015181600201556060820151816003015f6101000a81548173ffffffffffffffffffffffffffffffffffffffff021916908373ffffffffffffffffffffffffffffffffffffffff1602179055509050507f0e304cd649e1cd53a36a4d0c638cf06894e1ece45ae884d657a913f76d95ae46600254823360405161030a93929190610bc6565b60405180910390a150565b5f5f5f9054906101000a900473ffffffffffffffffffffffffffffffffffffffff16905090565b60025481565b61034a6103c6565b5f73ffffffffffffffffffffffffffffffffffffffff168173ffffffffffffffffffffffffffffffffffffffff16036103ba575f6040517f1e4fbdf70000000000000000000000000000000000000000000000000000000081526004016103b191906107ff565b60405180910390fd5b6103c38161044d565b50565b6103ce61050e565b73ffffffffffffffffffffffffffffffffffffffff166103ec610315565b73ffffffffffffffffffffffffffffffffffffffff161461044b5761040f61050e565b6040517f118cdaa700000000000000000000000000000000000000000000000000000000815260040161044291906107ff565b60405180910390fd5b565b5f5f5f9054906101000a900473ffffffffffffffffffffffffffffffffffffffff169050815f5f6101000a81548173ffffffffffffffffffffffffffffffffffffffff021916908373ffffffffffffffffffffffffffffffffffffffff1602179055508173ffffffffffffffffffffffffffffffffffffffff168173ffffffffffffffffffffffffffffffffffffffff167f8be0079c531659141344cd1fd0a4f28419497f9722a3daafe3b4186f6b6457e060405160405180910390a35050565b5f33905090565b5f604051905090565b5f5ffd5b5f5ffd5b5f819050919050565b61053881610526565b8114610542575f5ffd5b50565b5f813590506105538161052f565b92915050565b5f6020828403121561056e5761056d61051e565b5b5f61057b84828501610545565b91505092915050565b61058d81610526565b82525050565b5f81519050919050565b5f82825260208201905092915050565b8281835e5f83830152505050565b5f601f19601f8301169050919050565b5f6105d582610593565b6105df818561059d565b93506105ef8185602086016105ad565b6105f8816105bb565b840191505092915050565b5f73ffffffffffffffffffffffffffffffffffffffff82169050919050565b5f61062c82610603565b9050919050565b61063c81610622565b82525050565b5f6080820190506106555f830187610584565b818103602083015261066781866105cb565b90506106766040830185610584565b6106836060830184610633565b95945050505050565b5f5ffd5b5f5ffd5b7f4e487b71000000000000000000000000000000000000000000000000000000005f52604160045260245ffd5b6106ca826105bb565b810181811067ffffffffffffffff821117156106e9576106e8610694565b5b80604052505050565b5f6106fb610515565b905061070782826106c1565b919050565b5f67ffffffffffffffff82111561072657610725610694565b5b61072f826105bb565b9050602081019050919050565b828183375f83830152505050565b5f61075c6107578461070c565b6106f2565b90508281526020810184848401111561077857610777610690565b5b61078384828561073c565b509392505050565b5f82601f83011261079f5761079e61068c565b5b81356107af84826020860161074a565b91505092915050565b5f602082840312156107cd576107cc61051e565b5b5f82013567ffffffffffffffff8111156107ea576107e9610522565b5b6107f68482850161078b565b91505092915050565b5f6020820190506108125f830184610633565b92915050565b5f60208201905061082b5f830184610584565b92915050565b61083a81610622565b8114610844575f5ffd5b50565b5f8135905061085581610831565b92915050565b5f602082840312156108705761086f61051e565b5b5f61087d84828501610847565b91505092915050565b7f4e487b71000000000000000000000000000000000000000000000000000000005f52602260045260245ffd5b5f60028204905060018216806108ca57607f821691505b6020821081036108dd576108dc610886565b5b50919050565b7f4e487b71000000000000000000000000000000000000000000000000000000005f52601160045260245ffd5b5f61091a82610526565b91507fffffffffffffffffffffffffffffffffffffffffffffffffffffffffffffffff820361094c5761094b6108e3565b5b600182019050919050565b5f819050815f5260205f209050919050565b5f6020601f8301049050919050565b5f82821b905092915050565b5f600883026109b37fffffffffffffffffffffffffffffffffffffffffffffffffffffffffffffffff82610978565b6109bd8683610978565b95508019841693508086168417925050509392505050565b5f819050919050565b5f6109f86109f36109ee84610526565b6109d5565b610526565b9050919050565b5f819050919050565b610a11836109de565b610a25610a1d826109ff565b848454610984565b825550505050565b5f5f905090565b610a3c610a2d565b610a47818484610a08565b505050565b5b81811015610a6a57610a5f5f82610a34565b600181019050610a4d565b5050565b601f821115610aaf57610a8081610957565b610a8984610969565b81016020851015610a98578190505b610aac610aa485610969565b830182610a4c565b50505b505050565b5f82821c905092915050565b5f610acf5f1984600802610ab4565b1980831691505092915050565b5f610ae78383610ac0565b9150826002028217905092915050565b610b0082610593565b67ffffffffffffffff811115610b1957610b18610694565b5b610b2382546108b3565b610b2e828285610a6e565b5f60209050601f831160018114610b5f575f8415610b4d578287015190505b610b578582610adc565b865550610bbe565b601f198416610b6d86610957565b5f5b82811015610b9457848901518255600182019150602085019450602081019050610b6f565b86831015610bb15784890151610bad601f891682610ac0565b8355505b6001600288020188555050505b505050505050565b5f606082019050610bd95f830186610584565b8181036020830152610beb81856105cb565b9050610bfa6040830184610633565b94935050505056fea264697066735822122036ee84dc57dd2ad10846fa8ced689e7fbd80657957f791ea7b16d06223485c2264736f6c634300081e0033","linkReferences":{}},"methodIdentifiers":{"alertCount()":"ab446491","alerts(uint256)":"171d073a","createAlert(string)":"762938b6","owner()":"8da5cb5b","renounceOwnership()":"715018a6","transferOwnership(address)":"f2fde38b"},"id":2}